{
  "address": "0xa58dc7d5D82BF18d97D1f91de5ED5201564dCF41",
  "_format": "hh-sol-artifact-1",
  "contractName": "MyNFT",
  "sourceName": "contracts/MyNFT.sol",
  "abi": [
    {
      "inputs": [],
      "stateMutability": "nonpayable",
      "type": "constructor"
    },
    {
      "anonymous": false,
      "inputs": [
        {
          "indexed": true,
          "internalType": "address",
          "name": "owner",
          "type": "address"
        },
        {
          "indexed": true,
          "internalType": "address",
          "name": "approved",
          "type": "address"
        },
        {
          "indexed": true,
          "internalType": "uint256",
          "name": "tokenId",
          "type": "uint256"
        }
      ],
      "name": "Approval",
      "type": "event"
    },
    {
      "anonymous": false,
      "inputs": [
        {
          "indexed": true,
          "internalType": "address",
          "name": "owner",
          "type": "address"
        },
        {
          "indexed": true,
          "internalType": "address",
          "name": "operator",
          "type": "address"
        },
        {
          "indexed": false,
          "internalType": "bool",
          "name": "approved",
          "type": "bool"
        }
      ],
      "name": "ApprovalForAll",
      "type": "event"
    },
    {
      "anonymous": false,
      "inputs": [
        {
          "indexed": true,
          "internalType": "address",
          "name": "from",
          "type": "address"
        },
        {
          "indexed": true,
          "internalType": "address",
          "name": "to",
          "type": "address"
        },
        {
          "indexed": true,
          "internalType": "uint256",
          "name": "tokenId",
          "type": "uint256"
        }
      ],
      "name": "Transfer",
      "type": "event"
    },
    {
      "inputs": [
        {
          "internalType": "address",
          "name": "to",
          "type": "address"
        },
        {
          "internalType": "uint256",
          "name": "tokenId",
          "type": "uint256"
        }
      ],
      "name": "approve",
      "outputs": [],
      "stateMutability": "nonpayable",
      "type": "function"
    },
    {
      "inputs": [
        {
          "internalType": "address",
          "name": "owner",
          "type": "address"
        }
      ],
      "name": "balanceOf",
      "outputs": [
        {
          "internalType": "uint256",
          "name": "",
          "type": "uint256"
        }
      ],
      "stateMutability": "view",
      "type": "function"
    },
    {
      "inputs": [
        {
          "internalType": "uint256",
          "name": "tokenId",
          "type": "uint256"
        }
      ],
      "name": "getApproved",
      "outputs": [
        {
          "internalType": "address",
          "name": "",
          "type": "address"
        }
      ],
      "stateMutability": "view",
      "type": "function"
    },
    {
      "inputs": [
        {
          "internalType": "string",
          "name": "",
          "type": "string"
        }
      ],
      "name": "hashExists",
      "outputs": [
        {
          "internalType": "bool",
          "name": "",
          "type": "bool"
        }
      ],
      "stateMutability": "view",
      "type": "function"
    },
    {
      "inputs": [
        {
          "internalType": "address",
          "name": "owner",
          "type": "address"
        },
        {
          "internalType": "address",
          "name": "operator",
          "type": "address"
        }
      ],
      "name": "isApprovedForAll",
      "outputs": [
        {
          "internalType": "bool",
          "name": "",
          "type": "bool"
        }
      ],
      "stateMutability": "view",
      "type": "function"
    },
    {
      "inputs": [
        {
          "internalType": "address",
          "name": "to",
          "type": "address"
        },
        {
          "internalType": "string",
          "name": "hash",
          "type": "string"
        }
      ],
      "name": "mint",
      "outputs": [],
      "stateMutability": "nonpayable",
      "type": "function"
    },
    {
      "inputs": [],
      "name": "name",
      "outputs": [
        {
          "internalType": "string",
          "name": "",
          "type": "string"
        }
      ],
      "stateMutability": "view",
      "type": "function"
    },
    {
      "inputs": [
        {
          "internalType": "uint256",
          "name": "tokenId",
          "type": "uint256"
        }
      ],
      "name": "ownerOf",
      "outputs": [
        {
          "internalType": "address",
          "name": "",
          "type": "address"
        }
      ],
      "stateMutability": "view",
      "type": "function"
    },
    {
      "inputs": [
        {
          "internalType": "address",
          "name": "from",
          "type": "address"
        },
        {
          "internalType": "address",
          "name": "to",
          "type": "address"
        },
        {
          "internalType": "uint256",
          "name": "tokenId",
          "type": "uint256"
        }
      ],
      "name": "safeTransferFrom",
      "outputs": [],
      "stateMutability": "nonpayable",
      "type": "function"
    },
    {
      "inputs": [
        {
          "internalType": "address",
          "name": "from",
          "type": "address"
        },
        {
          "internalType": "address",
          "name": "to",
          "type": "address"
        },
        {
          "internalType": "uint256",
          "name": "tokenId",
          "type": "uint256"
        },
        {
          "internalType": "bytes",
          "name": "_data",
          "type": "bytes"
        }
      ],
      "name": "safeTransferFrom",
      "outputs": [],
      "stateMutability": "nonpayable",
      "type": "function"
    },
    {
      "inputs": [
        {
          "internalType": "address",
          "name": "operator",
          "type": "address"
        },
        {
          "internalType": "bool",
          "name": "approved",
          "type": "bool"
        }
      ],
      "name": "setApprovalForAll",
      "outputs": [],
      "stateMutability": "nonpayable",
      "type": "function"
    },
    {
      "inputs": [
        {
          "internalType": "bytes4",
          "name": "interfaceId",
          "type": "bytes4"
        }
      ],
      "name": "supportsInterface",
      "outputs": [
        {
          "internalType": "bool",
          "name": "",
          "type": "bool"
        }
      ],
      "stateMutability": "view",
      "type": "function"
    },
    {
      "inputs": [],
      "name": "symbol",
      "outputs": [
        {
          "internalType": "string",
          "name": "",
          "type": "string"
        }
      ],
      "stateMutability": "view",
      "type": "function"
    },
    {
      "inputs": [
        {
          "internalType": "uint256",
          "name": "tokenId",
          "type": "uint256"
        }
      ],
      "name": "tokenURI",
      "outputs": [
        {
          "internalType": "string",
          "name": "",
          "type": "string"
        }
      ],
      "stateMutability": "view",
      "type": "function"
    },
    {
      "inputs": [
        {
          "internalType": "address",
          "name": "from",
          "type": "address"
        },
        {
          "internalType": "address",
          "name": "to",
          "type": "address"
        },
        {
          "internalType": "uint256",
          "name": "tokenId",
          "type": "uint256"
        }
      ],
      "name": "transferFrom",
      "outputs": [],
      "stateMutability": "nonpayable",
      "type": "function"
    }
  ],
  "bytecode": "0x60806040523480156200001157600080fd5b506040518060400160405280600681526020017f4d79204e465400000000000000000000000000000000000000000000000000008152506040518060400160405280600381526020017f4e46540000000000000000000000000000000000000000000000000000000000815250816000908051906020019062000096929190620000b8565b508060019080519060200190620000af929190620000b8565b505050620001cd565b828054620000c69062000168565b90600052602060002090601f016020900481019282620000ea576000855562000136565b82601f106200010557805160ff191683800117855562000136565b8280016001018555821562000136579182015b828111156200013557825182559160200191906001019062000118565b5b50905062000145919062000149565b5090565b5b80821115620001645760008160009055506001016200014a565b5090565b600060028204905060018216806200018157607f821691505b602082108114156200019857620001976200019e565b5b50919050565b7f4e487b7100000000000000000000000000000000000000000000000000000000600052602260045260246000fd5b61270680620001dd6000396000f3fe608060405234801561001057600080fd5b50600436106100f55760003560e01c806370a0823111610097578063b88d4fde11610066578063b88d4fde14610296578063c87b56dd146102b2578063d0def521146102e2578063e985e9c5146102fe576100f5565b806370a08231146101fc57806395d89b411461022c5780639871e5101461024a578063a22cb4651461027a576100f5565b8063095ea7b3116100d3578063095ea7b31461017857806323b872dd1461019457806342842e0e146101b05780636352211e146101cc576100f5565b806301ffc9a7146100fa57806306fdde031461012a578063081812fc14610148575b600080fd5b610114600480360381019061010f91906119ec565b61032e565b6040516101219190612158565b60405180910390f35b610132610410565b60405161013f9190612173565b60405180910390f35b610162600480360381019061015d9190611a7f565b6104a2565b60405161016f91906120f1565b60405180910390f35b610192600480360381019061018d91906119b0565b610527565b005b6101ae60048036038101906101a99190611856565b61063f565b005b6101ca60048036038101906101c59190611856565b61069f565b005b6101e660048036038101906101e19190611a7f565b6106bf565b6040516101f391906120f1565b60405180910390f35b610216600480360381019061021191906117f1565b610771565b6040516102239190612375565b60405180910390f35b610234610829565b6040516102419190612173565b60405180910390f35b610264600480360381019061025f9190611a3e565b6108bb565b6040516102719190612158565b60405180910390f35b610294600480360381019061028f9190611920565b6108f1565b005b6102b060048036038101906102ab91906118a5565b610a72565b005b6102cc60048036038101906102c79190611a7f565b610ad4565b6040516102d99190612173565b60405180910390f35b6102fc60048036038101906102f7919061195c565b610bc1565b005b6103186004803603810190610313919061181a565b610cb3565b6040516103259190612158565b60405180910390f35b60007f80ac58cd000000000000000000000000000000000000000000000000000000007bffffffffffffffffffffffffffffffffffffffffffffffffffffffff1916827bffffffffffffffffffffffffffffffffffffffffffffffffffffffff191614806103f957507f5b5e139f000000000000000000000000000000000000000000000000000000007bffffffffffffffffffffffffffffffffffffffffffffffffffffffff1916827bffffffffffffffffffffffffffffffffffffffffffffffffffffffff1916145b80610409575061040882610d47565b5b9050919050565b60606000805461041f906125a4565b80601f016020809104026020016040519081016040528092919081815260200182805461044b906125a4565b80156104985780601f1061046d57610100808354040283529160200191610498565b820191906000526020600020905b81548152906001019060200180831161047b57829003601f168201915b5050505050905090565b60006104ad82610db1565b6104ec576040517f08c379a00000000000000000000000000000000000000000000000000000000081526004016104e3906122b5565b60405180910390fd5b6004600083815260200190815260200160002060009054906101000a900473ffffffffffffffffffffffffffffffffffffffff169050919050565b6000610532826106bf565b90508073ffffffffffffffffffffffffffffffffffffffff168373ffffffffffffffffffffffffffffffffffffffff1614156105a3576040517f08c379a000000000000000000000000000000000000000000000000000000000815260040161059a90612315565b60405180910390fd5b8073ffffffffffffffffffffffffffffffffffffffff166105c2610e1d565b73ffffffffffffffffffffffffffffffffffffffff1614806105f157506105f0816105eb610e1d565b610cb3565b5b610630576040517f08c379a000000000000000000000000000000000000000000000000000000000815260040161062790612235565b60405180910390fd5b61063a8383610e25565b505050565b61065061064a610e1d565b82610ede565b61068f576040517f08c379a000000000000000000000000000000000000000000000000000000000815260040161068690612335565b60405180910390fd5b61069a838383610fbc565b505050565b6106ba83838360405180602001604052806000815250610a72565b505050565b6000806002600084815260200190815260200160002060009054906101000a900473ffffffffffffffffffffffffffffffffffffffff169050600073ffffffffffffffffffffffffffffffffffffffff168173ffffffffffffffffffffffffffffffffffffffff161415610768576040517f08c379a000000000000000000000000000000000000000000000000000000000815260040161075f90612275565b60405180910390fd5b80915050919050565b60008073ffffffffffffffffffffffffffffffffffffffff168273ffffffffffffffffffffffffffffffffffffffff1614156107e2576040517f08c379a00000000000000000000000000000000000000000000000000000000081526004016107d990612255565b60405180910390fd5b600360008373ffffffffffffffffffffffffffffffffffffffff1673ffffffffffffffffffffffffffffffffffffffff168152602001908152602001600020549050919050565b606060018054610838906125a4565b80601f0160208091040260200160405190810160405280929190818152602001828054610864906125a4565b80156108b15780601f10610886576101008083540402835291602001916108b1565b820191906000526020600020905b81548152906001019060200180831161089457829003601f168201915b5050505050905090565b6008818051602081018201805184825260208301602085012081835280955050505050506000915054906101000a900460ff1681565b6108f9610e1d565b73ffffffffffffffffffffffffffffffffffffffff168273ffffffffffffffffffffffffffffffffffffffff161415610967576040517f08c379a000000000000000000000000000000000000000000000000000000000815260040161095e906121f5565b60405180910390fd5b8060056000610974610e1d565b73ffffffffffffffffffffffffffffffffffffffff1673ffffffffffffffffffffffffffffffffffffffff16815260200190815260200160002060008473ffffffffffffffffffffffffffffffffffffffff1673ffffffffffffffffffffffffffffffffffffffff16815260200190815260200160002060006101000a81548160ff0219169083151502179055508173ffffffffffffffffffffffffffffffffffffffff16610a21610e1d565b73ffffffffffffffffffffffffffffffffffffffff167f17307eab39ab6107e8899845ad3d59bd9653f200f220920489ca2b5937696c3183604051610a669190612158565b60405180910390a35050565b610a83610a7d610e1d565b83610ede565b610ac2576040517f08c379a0000000000000000000000000000000000000000000000000000000008152600401610ab990612335565b60405180910390fd5b610ace84848484611218565b50505050565b6060610adf82610db1565b610b1e576040517f08c379a0000000000000000000000000000000000000000000000000000000008152600401610b1590612355565b60405180910390fd5b600760008381526020019081526020016000208054610b3c906125a4565b80601f0160208091040260200160405190810160405280929190818152602001828054610b68906125a4565b8015610bb55780601f10610b8a57610100808354040283529160200191610bb5565b820191906000526020600020905b815481529060010190602001808311610b9857829003601f168201915b50505050509050919050565b600881604051610bd191906120da565b908152602001604051809103902060009054906101000a900460ff1615610c2d576040517f08c379a0000000000000000000000000000000000000000000000000000000008152600401610c24906122d5565b60405180910390fd5b6001600882604051610c3f91906120da565b908152602001604051809103902060006101000a81548160ff021916908315150217905550610c6e6006611274565b6000610c7a600661128a565b9050610c868382611298565b81600760008381526020019081526020016000209080519060200190610cad929190611615565b50505050565b6000600560008473ffffffffffffffffffffffffffffffffffffffff1673ffffffffffffffffffffffffffffffffffffffff16815260200190815260200160002060008373ffffffffffffffffffffffffffffffffffffffff1673ffffffffffffffffffffffffffffffffffffffff16815260200190815260200160002060009054906101000a900460ff16905092915050565b60007f01ffc9a7000000000000000000000000000000000000000000000000000000007bffffffffffffffffffffffffffffffffffffffffffffffffffffffff1916827bffffffffffffffffffffffffffffffffffffffffffffffffffffffff1916149050919050565b60008073ffffffffffffffffffffffffffffffffffffffff166002600084815260200190815260200160002060009054906101000a900473ffffffffffffffffffffffffffffffffffffffff1673ffffffffffffffffffffffffffffffffffffffff1614159050919050565b600033905090565b816004600083815260200190815260200160002060006101000a81548173ffffffffffffffffffffffffffffffffffffffff021916908373ffffffffffffffffffffffffffffffffffffffff160217905550808273ffffffffffffffffffffffffffffffffffffffff16610e98836106bf565b73ffffffffffffffffffffffffffffffffffffffff167f8c5be1e5ebec7d5bd14f71427d1e84f3dd0314c0f7b2291e5b200ac8c7c3b92560405160405180910390a45050565b6000610ee982610db1565b610f28576040517f08c379a0000000000000000000000000000000000000000000000000000000008152600401610f1f90612215565b60405180910390fd5b6000610f33836106bf565b90508073ffffffffffffffffffffffffffffffffffffffff168473ffffffffffffffffffffffffffffffffffffffff161480610fa257508373ffffffffffffffffffffffffffffffffffffffff16610f8a846104a2565b73ffffffffffffffffffffffffffffffffffffffff16145b80610fb35750610fb28185610cb3565b5b91505092915050565b8273ffffffffffffffffffffffffffffffffffffffff16610fdc826106bf565b73ffffffffffffffffffffffffffffffffffffffff1614611032576040517f08c379a0000000000000000000000000000000000000000000000000000000008152600401611029906122f5565b60405180910390fd5b600073ffffffffffffffffffffffffffffffffffffffff168273ffffffffffffffffffffffffffffffffffffffff1614156110a2576040517f08c379a0000000000000000000000000000000000000000000000000000000008152600401611099906121d5565b60405180910390fd5b6110ad838383611466565b6110b8600082610e25565b6001600360008573ffffffffffffffffffffffffffffffffffffffff1673ffffffffffffffffffffffffffffffffffffffff168152602001908152602001600020600082825461110891906124ba565b925050819055506001600360008473ffffffffffffffffffffffffffffffffffffffff1673ffffffffffffffffffffffffffffffffffffffff168152602001908152602001600020600082825461115f9190612464565b92505081905550816002600083815260200190815260200160002060006101000a81548173ffffffffffffffffffffffffffffffffffffffff021916908373ffffffffffffffffffffffffffffffffffffffff160217905550808273ffffffffffffffffffffffffffffffffffffffff168473ffffffffffffffffffffffffffffffffffffffff167fddf252ad1be2c89b69c2b068fc378daa952ba7f163c4a11628f55a4df523b3ef60405160405180910390a4505050565b611223848484610fbc565b61122f8484848461146b565b61126e576040517f08c379a000000000000000000000000000000000000000000000000000000000815260040161126590612195565b60405180910390fd5b50505050565b6001816000016000828254019250508190555050565b600081600001549050919050565b600073ffffffffffffffffffffffffffffffffffffffff168273ffffffffffffffffffffffffffffffffffffffff161415611308576040517f08c379a00000000000000000000000000000000000000000000000000000000081526004016112ff90612295565b60405180910390fd5b61131181610db1565b15611351576040517f08c379a0000000000000000000000000000000000000000000000000000000008152600401611348906121b5565b60405180910390fd5b61135d60008383611466565b6001600360008473ffffffffffffffffffffffffffffffffffffffff1673ffffffffffffffffffffffffffffffffffffffff16815260200190815260200160002060008282546113ad9190612464565b92505081905550816002600083815260200190815260200160002060006101000a81548173ffffffffffffffffffffffffffffffffffffffff021916908373ffffffffffffffffffffffffffffffffffffffff160217905550808273ffffffffffffffffffffffffffffffffffffffff16600073ffffffffffffffffffffffffffffffffffffffff167fddf252ad1be2c89b69c2b068fc378daa952ba7f163c4a11628f55a4df523b3ef60405160405180910390a45050565b505050565b600061148c8473ffffffffffffffffffffffffffffffffffffffff16611602565b156115f5578373ffffffffffffffffffffffffffffffffffffffff1663150b7a026114b5610e1d565b8786866040518563ffffffff1660e01b81526004016114d7949392919061210c565b602060405180830381600087803b1580156114f157600080fd5b505af192505050801561152257506040513d601f19601f8201168201806040525081019061151f9190611a15565b60015b6115a5573d8060008114611552576040519150601f19603f3d011682016040523d82523d6000602084013e611557565b606091505b5060008151141561159d576040517f08c379a000000000000000000000000000000000000000000000000000000000815260040161159490612195565b60405180910390fd5b805181602001fd5b63150b7a0260e01b7bffffffffffffffffffffffffffffffffffffffffffffffffffffffff1916817bffffffffffffffffffffffffffffffffffffffffffffffffffffffff1916149150506115fa565b600190505b949350505050565b600080823b905060008111915050919050565b828054611621906125a4565b90600052602060002090601f016020900481019282611643576000855561168a565b82601f1061165c57805160ff191683800117855561168a565b8280016001018555821561168a579182015b8281111561168957825182559160200191906001019061166e565b5b509050611697919061169b565b5090565b5b808211156116b457600081600090555060010161169c565b5090565b60006116cb6116c6846123c1565b612390565b9050828152602081018484840111156116e357600080fd5b6116ee848285612562565b509392505050565b6000611709611704846123f1565b612390565b90508281526020810184848401111561172157600080fd5b61172c848285612562565b509392505050565b60008135905061174381612674565b92915050565b6000813590506117588161268b565b92915050565b60008135905061176d816126a2565b92915050565b600081519050611782816126a2565b92915050565b600082601f83011261179957600080fd5b81356117a98482602086016116b8565b91505092915050565b600082601f8301126117c357600080fd5b81356117d38482602086016116f6565b91505092915050565b6000813590506117eb816126b9565b92915050565b60006020828403121561180357600080fd5b600061181184828501611734565b91505092915050565b6000806040838503121561182d57600080fd5b600061183b85828601611734565b925050602061184c85828601611734565b9150509250929050565b60008060006060848603121561186b57600080fd5b600061187986828701611734565b935050602061188a86828701611734565b925050604061189b868287016117dc565b9150509250925092565b600080600080608085870312156118bb57600080fd5b60006118c987828801611734565b94505060206118da87828801611734565b93505060406118eb878288016117dc565b925050606085013567ffffffffffffffff81111561190857600080fd5b61191487828801611788565b91505092959194509250565b6000806040838503121561193357600080fd5b600061194185828601611734565b925050602061195285828601611749565b9150509250929050565b6000806040838503121561196f57600080fd5b600061197d85828601611734565b925050602083013567ffffffffffffffff81111561199a57600080fd5b6119a6858286016117b2565b9150509250929050565b600080604083850312156119c357600080fd5b60006119d185828601611734565b92505060206119e2858286016117dc565b9150509250929050565b6000602082840312156119fe57600080fd5b6000611a0c8482850161175e565b91505092915050565b600060208284031215611a2757600080fd5b6000611a3584828501611773565b91505092915050565b600060208284031215611a5057600080fd5b600082013567ffffffffffffffff811115611a6a57600080fd5b611a76848285016117b2565b91505092915050565b600060208284031215611a9157600080fd5b6000611a9f848285016117dc565b91505092915050565b611ab1816124ee565b82525050565b611ac081612500565b82525050565b6000611ad182612421565b611adb8185612437565b9350611aeb818560208601612571565b611af481612663565b840191505092915050565b6000611b0a8261242c565b611b148185612448565b9350611b24818560208601612571565b611b2d81612663565b840191505092915050565b6000611b438261242c565b611b4d8185612459565b9350611b5d818560208601612571565b80840191505092915050565b6000611b76603283612448565b91507f4552433732313a207472616e7366657220746f206e6f6e20455243373231526560008301527f63656976657220696d706c656d656e74657200000000000000000000000000006020830152604082019050919050565b6000611bdc601c83612448565b91507f4552433732313a20746f6b656e20616c7265616479206d696e746564000000006000830152602082019050919050565b6000611c1c602483612448565b91507f4552433732313a207472616e7366657220746f20746865207a65726f2061646460008301527f72657373000000000000000000000000000000000000000000000000000000006020830152604082019050919050565b6000611c82601983612448565b91507f4552433732313a20617070726f766520746f2063616c6c6572000000000000006000830152602082019050919050565b6000611cc2602c83612448565b91507f4552433732313a206f70657261746f7220717565727920666f72206e6f6e657860008301527f697374656e7420746f6b656e00000000000000000000000000000000000000006020830152604082019050919050565b6000611d28603883612448565b91507f4552433732313a20617070726f76652063616c6c6572206973206e6f74206f7760008301527f6e6572206e6f7220617070726f76656420666f7220616c6c00000000000000006020830152604082019050919050565b6000611d8e602a83612448565b91507f4552433732313a2062616c616e636520717565727920666f7220746865207a6560008301527f726f2061646472657373000000000000000000000000000000000000000000006020830152604082019050919050565b6000611df4602983612448565b91507f4552433732313a206f776e657220717565727920666f72206e6f6e657869737460008301527f656e7420746f6b656e00000000000000000000000000000000000000000000006020830152604082019050919050565b6000611e5a602083612448565b91507f4552433732313a206d696e7420746f20746865207a65726f20616464726573736000830152602082019050919050565b6000611e9a602c83612448565b91507f4552433732313a20617070726f76656420717565727920666f72206e6f6e657860008301527f697374656e7420746f6b656e00000000000000000000000000000000000000006020830152604082019050919050565b6000611f00601b83612448565b91507f4552433732313a206861736820616c7265616479206d696e74656400000000006000830152602082019050919050565b6000611f40602983612448565b91507f4552433732313a207472616e73666572206f6620746f6b656e2074686174206960008301527f73206e6f74206f776e00000000000000000000000000000000000000000000006020830152604082019050919050565b6000611fa6602183612448565b91507f4552433732313a20617070726f76616c20746f2063757272656e74206f776e6560008301527f72000000000000000000000000000000000000000000000000000000000000006020830152604082019050919050565b600061200c603183612448565b91507f4552433732313a207472616e736665722063616c6c6572206973206e6f74206f60008301527f776e6572206e6f7220617070726f7665640000000000000000000000000000006020830152604082019050919050565b6000612072602783612448565b91507f4552433732313a2055524920717565727920666f72206e6f6e6578697374656e60008301527f7420746f6b656e000000000000000000000000000000000000000000000000006020830152604082019050919050565b6120d481612558565b82525050565b60006120e68284611b38565b915081905092915050565b60006020820190506121066000830184611aa8565b92915050565b60006080820190506121216000830187611aa8565b61212e6020830186611aa8565b61213b60408301856120cb565b818103606083015261214d8184611ac6565b905095945050505050565b600060208201905061216d6000830184611ab7565b92915050565b6000602082019050818103600083015261218d8184611aff565b905092915050565b600060208201905081810360008301526121ae81611b69565b9050919050565b600060208201905081810360008301526121ce81611bcf565b9050919050565b600060208201905081810360008301526121ee81611c0f565b9050919050565b6000602082019050818103600083015261220e81611c75565b9050919050565b6000602082019050818103600083015261222e81611cb5565b9050919050565b6000602082019050818103600083015261224e81611d1b565b9050919050565b6000602082019050818103600083015261226e81611d81565b9050919050565b6000602082019050818103600083015261228e81611de7565b9050919050565b600060208201905081810360008301526122ae81611e4d565b9050919050565b600060208201905081810360008301526122ce81611e8d565b9050919050565b600060208201905081810360008301526122ee81611ef3565b9050919050565b6000602082019050818103600083015261230e81611f33565b9050919050565b6000602082019050818103600083015261232e81611f99565b9050919050565b6000602082019050818103600083015261234e81611fff565b9050919050565b6000602082019050818103600083015261236e81612065565b9050919050565b600060208201905061238a60008301846120cb565b92915050565b6000604051905081810181811067ffffffffffffffff821117156123b7576123b6612634565b5b8060405250919050565b600067ffffffffffffffff8211156123dc576123db612634565b5b601f19601f8301169050602081019050919050565b600067ffffffffffffffff82111561240c5761240b612634565b5b601f19601f8301169050602081019050919050565b600081519050919050565b600081519050919050565b600082825260208201905092915050565b600082825260208201905092915050565b600081905092915050565b600061246f82612558565b915061247a83612558565b9250827fffffffffffffffffffffffffffffffffffffffffffffffffffffffffffffffff038211156124af576124ae6125d6565b5b828201905092915050565b60006124c582612558565b91506124d083612558565b9250828210156124e3576124e26125d6565b5b828203905092915050565b60006124f982612538565b9050919050565b60008115159050919050565b60007fffffffff0000000000000000000000000000000000000000000000000000000082169050919050565b600073ffffffffffffffffffffffffffffffffffffffff82169050919050565b6000819050919050565b82818337600083830152505050565b60005b8381101561258f578082015181840152602081019050612574565b8381111561259e576000848401525b50505050565b600060028204905060018216806125bc57607f821691505b602082108114156125d0576125cf612605565b5b50919050565b7f4e487b7100000000000000000000000000000000000000000000000000000000600052601160045260246000fd5b7f4e487b7100000000000000000000000000000000000000000000000000000000600052602260045260246000fd5b7f4e487b7100000000000000000000000000000000000000000000000000000000600052604160045260246000fd5b6000601f19601f8301169050919050565b61267d816124ee565b811461268857600080fd5b50565b61269481612500565b811461269f57600080fd5b50565b6126ab8161250c565b81146126b657600080fd5b50565b6126c281612558565b81146126cd57600080fd5b5056fea26469706673582212203df0e5b033999ff3d452e7f44839f848c8a3f77a4f48e06dd15590bcc04e9f3664736f6c63430008000033",
  "linkReferences": {},
  "deployedLinkReferences": {}
}